S01700004763634170706C69636174696F6E312E737265635B
S11300000C942A000C947C000C949D000C944700E2
S11300100C9447000C9447000C9447000C94470040
S11300200C9447000C9447000C9447000C94470030
S11300300C9447000C9447000C9447000C94470020
S11300400C9447000C9447000C9447000C94470010
S11300500C94470011241FBECFE5D8E0DEBFCDBF0E
S113006010E0A0E6B0E0EEE3F9E002C005900D92E6
S1130070A236B107D9F720E0A2E6B0E001C01D9294
S1130080A436B207E1F70E94AA020C949D040C94D2
S1130090000064E070E081E490E00E94920263E07A
S11300A070E081E490E00E94920262E070E081E4FA
S11300B090E00E94920261E070E081E490E00E948E
S11300C0920262E070E084E490E00E948A0263E0BD
S11300D070E084E490E00E948A020E94170483E0A6
S11300E090E00E941F040E94190483E090E00E94A3
S11300F02D040E94270408951F920F920FB60F92A9
S113010011248F939F9380916200909163008830B3
S1130110910530F40196909363008093620006C0C9
S113012081E090E090936300809362009F918F91AF
S11301300F900FBE0F901F9018951F920F920FB63D
S11301400F9211248F939F9380916000909161008E
S11301508530910530F4019690936100809360009E
S113016006C081E090E090936100809360009F91CD
S11301708F910F900FBE0F901F9018958091620081
S1130180909163000197049730F464E070E081E497
S113019090E00E949A02809162009091630002971D
S11301A0049730F463E070E081E490E00E949A02E6
S11301B080916200909163000397049730F462E0A9
S11301C070E081E490E00E949A0280916200909134
S11301D063000497049730F461E070E081E490E0F8
S11301E00E949A0284E690E00E94760464E070E043
S11301F081E490E00E94A20263E070E081E490E078
S11302000E94A20262E070E081E490E00E94A202F7
S113021061E070E081E490E00E94A20284E893E04F
S11302200E94760408958091620090916300019782
S1130230049730F464E070E081E490E00E949A0254
S113024080916200909163000297049730F463E018
S113025070E081E490E00E949A02809162009091A3
S113026063000397049730F462E070E081E490E067
S11302700E949A028091620090916300049704970F
S113028030F461E070E081E490E00E949A0288EC2E
S113029090E00E94760464E070E081E490E00E94C3
S11302A0A20263E070E081E490E00E94A20262E0B6
S11302B070E081E490E00E94A20261E070E081E4D9
S11302C090E00E94A20280E293E00E9476040895E6
S11302D080916200909163000197049730F464E088
S11302E070E081E490E00E949A0280916200909113
S11302F063000297049730F463E070E081E490E0D7
S11303000E949A028091620090916300039704977F
S113031030F462E070E081E490E00E949A028091FF
S11303206200909163000497049730F461E070E0F8
S113033081E490E00E949A028CE291E00E947604AB
S113034064E070E081E490E00E94A20263E070E067
S113035081E490E00E94A20262E070E081E490E017
S11303600E94A20261E070E081E490E00E94A20297
S11303708CEB92E00E947604089580916200909143
S113038063000197049730F464E070E081E490E046
S11303900E949A02809162009091630002970497F0
S11303A030F463E070E081E490E00E949A0280916E
S11303B06200909163000397049730F462E070E068
S11303C081E490E00E949A0280916200909163001F
S11303D00497049730F461E070E081E490E00E94B7
S11303E09A0284EF91E00E94760464E070E081E474
S11303F090E00E94A20263E070E081E490E00E9439
S1130400A20262E070E081E490E00E94A20261E056
S113041070E081E490E00E94A20284EF91E00E94E7
S11304207604089580916200909163000197049787
S113043030F464E070E081E490E00E949A028091DC
S11304406200909163000297049730F463E070E0D7
S113045081E490E00E949A0280916200909163008E
S11304600397049730F462E070E081E490E00E9426
S11304709A0280916200909163000497049730F48B
S113048061E070E081E490E00E949A0280E293E0EF
S11304900E94760464E070E081E490E00E94A2028D
S11304A063E070E081E490E00E94A20262E070E008
S11304B081E490E00E94A20261E070E081E490E0B7
S11304C00E94A20288EC90E00E9476040895809134
S11304D06000909161008330910599F030F481308F
S11304E0910549F0029751F0F2CF8430910561F003
S11304F0059769F0ECCF0E94BE00E9CF0E9413017A
S1130500E6CF0E946801E3CF0E94BD01E0CF0E94C4
S11305101202DDCF9C01CB0140E050E0B9010E9402
S1130520B10208959C01CB0141E050E0B9010E9461
S1130530B10208959C01CB0141E050E0B9010E9451
S1130540640308959C01CB0140E050E0B9010E948E
S1130550640308950E9449000E94670280E090E0CD
S1130560089562347105B9F120F46134710551F0D4
S113057008956334710509F457C06434710509F4AE
S11305807BC008954115510591F44AB35BB321E052
S113059030E0B90102C0660F771F8A95E2F7CB01FC
S11305A080959095842395239BBB8ABB0895413005
S11305B0510509F088C02AB33BB341E050E0BA01C9
S11305C002C0660F771F8A95E2F7CB01822B932B2B
S11305D09BBB8ABB08954115510591F447B358B3A9
S11305E021E030E0B90102C0660F771F8A95E2F777
S11305F0CB01809590958423952398BB87BB089560
S11306004130510509F05FC027B338B341E050E0F1
S1130610BA0102C0660F771F8A95E2F7CB01822BDD
S1130620932B98BB87BB08954115510591F444B3AE
S113063055B321E030E0B90102C0660F771F8A95F7
S1130640E2F7CB01809590958423952395BB84BBD9
S1130650089541305105B9F524B335B341E050E074
S1130660BA0102C0660F771F8A95E2F7CB01822B8D
S1130670932B95BB84BB08954115510591F441B367
S113068052B321E030E0B90102C0660F771F8A95AA
S1130690E2F7CB01809590958423952392BB81BB8F
S11306A008954130510579F421B332B341E050E06B
S11306B0BA0102C0660F771F8A95E2F7CB01822B3D
S11306C0932B92BB81BB089562347105B9F120F478
S11306D06134710551F008956334710509F457C00C
S11306E06434710509F47BC008954115510591F4F2
S11306F04BB35CB321E030E0B90102C0660F771F51
S11307008A95E2F7CB0180959095842395239CBB31
S11307108BBB08954130510509F088C02BB33CB31D
S113072041E050E0BA0102C0660F771F8A95E2F7F4
S1130730CB01822B932B9CBB8BBB08954115510598
S113074091F448B359B321E030E0B90102C0660F17
S1130750771F8A95E2F7CB018095909584239523A2
S113076099BB88BB08954130510509F05FC028B397
S113077039B341E050E0BA0102C0660F771F8A9591
S1130780E2F7CB01822B932B99BB88BB08954115CB
S1130790510591F445B356B321E030E0B90102C0EC
S11307A0660F771F8A95E2F7CB0180959095842395
S11307B0952396BB85BB089541305105B9F525B302
S11307C036B341E050E0BA0102C0660F771F8A9544
S11307D0E2F7CB01822B932B96BB85BB0895411581
S11307E0510591F442B353B321E030E0B90102C0A2
S11307F0660F771F8A95E2F7CB0180959095842345
S1130800952393BB82BB08954130510579F422B3FB
S113081033B341E050E0BA0102C0660F771F8A95F6
S1130820E2F7CB01822B932B93BB82BB0895789480
S113083008958BB79CB780649CBF8BBF08950397C2
S113084029F485B796B7836096BF85BF08958BB7A3
S11308509CB780689CBF8BBF0895039729F485B724
S113086096B78C6096BF85BF0895813089F028F0D3
S11308708230C9F0833011F12BC083B794B78F7BDA
S113088094BF83BF83B794B7877F94BF83BF20C0CF
S113089083B794B7806494BF83BF83B794B7877FCB
S11308A094BF83BF15C083B794B78F7B94BF83BFB6
S11308B083B794B7886094BF83BF0AC083B794B7E3
S11308C0806494BF83BF83B794B7886094BF83BFA9
S11308D013BE12BE83B794B7887F992794BF83BF92
S11308E083B794B7862B94BF83BF0895CF93DF93C8
S11308F0EC0161E080E00E943504CE01880F991F6D
S1130900880F991F23B734B7216034BF23BF40E059
S113091050E00BC028B739B720FFFCCF28B739B750
S1130920216039BF28BF4F5F5F4F4817590790F3C5
S111093014BE13BEDF91CF910895F894FFCF4B
S105093E0100B2
S9030000FC
