S01700004763634170706C69636174696F6E312E737265635B
S11300000C942A000C9461030C948A030C9447000A
S11300100C9447000C9447000C9447000C94470040
S11300200C9447000C9447000C9447000C94FD0377
S11300300C9447000C9447000C9447000C94470020
S11300400C9447000C9447000C9447000C94470010
S11300500C94470011241FBECFE5D8E0DEBFCDBF0E
S113006010E0A0E6B0E0E0E5F8E002C005900D92F3
S1130070A236B107D9F720E0A2E6B0E001C01D9294
S1130080A936B207E1F70E9400020C9426040C94EE
S1130090000080916200883020F48F5F80936200BA
S11300A0089581E080936200089580916000853016
S11300B020F48F5F80936000089581E08093600056
S11300C0089580916200882331F0853020F464E043
S11300D081E40E94F20180916200823030F0863027
S11300E020F463E081E40E94F20180916200833095
S11300F030F0873020F462E081E40E94F2018091C4
S11301006200843030F0883020F461E081E40E94A1
S1130110F20184E60E94E40364E081E40E94F901B0
S113012063E081E40E94F90162E081E40E94F90144
S113013061E081E40E94F90184E80E94E4030895E7
S113014080916200882331F0853020F464E081E4FA
S11301500E94F20180916200823030F0863020F4F7
S113016063E081E40E94F20180916200833030F008
S1130170873020F462E081E40E94F2018091620001
S1130180843030F0883020F461E081E40E94F20190
S113019088EC0E94E40364E081E40E94F90163E0D6
S11301A081E40E94F90162E081E40E94F90161E0C6
S11301B081E40E94F90180E20E94E40308958091A1
S11301C06200882331F0853020F464E081E40E94E9
S11301D0F20180916200823030F0863020F463E0D6
S11301E081E40E94F20180916200833030F0873014
S11301F020F462E081E40E94F20180916200843084
S113020030F0883020F461E081E40E94F2018CE255
S11302100E94E40364E081E40E94F90163E081E464
S11302200E94F90162E081E40E94F90161E081E445
S11302300E94F9018CEB0E94E4030895809162000E
S1130240882331F0853020F464E081E40E94F201D7
S113025080916200823030F0863020F463E081E4E3
S11302600E94F20180916200833030F0873020F4E4
S113027062E081E40E94F20180916200843030F0F7
S1130280883020F461E081E40E94F20184EF0E944E
S1130290E40364E081E40E94F90163E081E40E94E4
S11302A0F90162E081E40E94F90161E081E40E94C5
S11302B0F90184EF0E94E403089580916200882389
S11302C031F0853020F464E081E40E94F2018091F1
S11302D06200823030F0863020F463E081E40E94D2
S11302E0F20180916200833030F0873020F462E0C4
S11302F081E40E94F20180916200843030F0883001
S113030020F461E081E40E94F20164E081E40E944F
S1130310F90163E081E40E94F90162E081E40E9452
S1130320F90161E081E40E94F90188EC0E94E40390
S1130330089564E081E40E94EB0163E081E40E949B
S1130340EB0162E081E40E94EB0161E081E40E9440
S1130350EB0161E083E40E94E40167E084E40E942D
S1130360E4010E94410383E00E9447030E94430387
S113037083E00E9451030E944D0385E590E00E94B2
S11303805C0389E490E00E94570308958091600023
S1130390833089F028F4813041F0823049F0F6CF7F
S11303A0843061F0853069F0F1CF0E946100EECFB6
S11303B00E94A000EBCF0E94DF00E8CF0E941E0144
S11303C0E5CF0E945D01E2CF982F862F40E0692F90
S11303D00E9407020895982F862F41E0692F0E94FA
S11303E007020895982F862F41E0692F0E94A402E6
S11303F00895982F862F40E0692F0E94A402089543
S11304000E9499010E94C60180E090E00895623440
S113041069F118F4613441F08DC0633409F448C0C3
S1130420643409F466C086C041110FC04AB321E0A8
S113043030E0B90102C0660F771F8A95E2F7CB015D
S1130440809584238ABB81E00895413009F074C00B
S11304504AB321E030E0B90102C0660F771F8A95E4
S1130460E2F7CB01842B8ABB81E0089541110FC0D0
S113047047B321E030E0B90102C0660F771F8A95C7
S1130480E2F7CB018095842387BB81E00895413056
S113049009F054C047B321E030E0B90102C0660F4F
S11304A0771F8A95E2F7CB01842B87BB81E00895FF
S11304B041110FC044B321E030E0B90102C0660F1E
S11304C0771F8A95E2F7CB018095842384BB81E072
S11304D008954130A9F544B321E030E0B90102C0E8
S11304E0660F771F8A95E2F7CB01842B84BB81E0EA
S11304F0089541110FC041B321E030E0B90102C0B9
S1130500660F771F8A95E2F7CB018095842381BB20
S113051081E008954130B1F441B321E030E0B90104
S113052002C0660F771F8A95E2F7CB01842B81BB4B
S113053081E0089580E0089580E0089580E00895C2
S113054080E0089580E00895623469F118F461341C
S113055041F08DC0633409F448C0643409F466C0C2
S113056086C041110FC04BB321E030E0B90102C095
S1130570660F771F8A95E2F7CB01809584238BBBA6
S113058081E00895413009F074C04BB321E030E0BC
S1130590B90102C0660F771F8A95E2F7CB01842B5D
S11305A08BBB81E0089541110FC048B321E030E0D6
S11305B0B90102C0660F771F8A95E2F7CB018095D7
S11305C0842388BB81E00895413009F054C048B3C6
S11305D021E030E0B90102C0660F771F8A95E2F787
S11305E0CB01842B88BB81E0089541110FC045B332
S11305F021E030E0B90102C0660F771F8A95E2F767
S1130600CB018095842385BB81E008954130A9F511
S113061045B321E030E0B90102C0660F771F8A9527
S1130620E2F7CB01842B85BB81E0089541110FC013
S113063042B321E030E0B90102C0660F771F8A950A
S1130640E2F7CB018095842382BB81E00895413099
S1130650B1F442B321E030E0B90102C0660F771F64
S11306608A95E2F7CB01842B82BB81E0089580E078
S1130670089580E0089580E0089580E0089580E082
S11306800895789408958BB780648BBF0895833060
S113069019F485B7836085BF08958BB780688BBFD5
S11306A00895833019F485B78C6085BF08959093BD
S11306B066008093650008959093640080936300BE
S11306C008951F920F920FB60F9211242F933F9308
S11306D04F935F936F937F938F939F93AF93BF9346
S11306E0EF93FF93E0916500F0916600309709F075
S11306F00995FF91EF91BF91AF919F918F917F9158
S11307006F915F914F913F912F910F900FBE0F907A
S11307101F9018951F920F920FB60F9211242F93CA
S11307203F934F935F936F937F938F939F93AF9375
S1130730BF93EF93FF93E0916300F09164003097CF
S113074009F00995FF91EF91BF91AF919F918F911E
S11307507F916F915F914F913F912F910F900FBEB9
S11307600F901F901895813071F028F0823099F025
S11307708330C9F020C083B78F7B83BF83B7877F63
S113078083BF81E019C083B7806483BF83B7877F49
S113079083BF81E011C083B78F7B83BF83B7886039
S11307A083BF81E009C083B7806483BF83B7886057
S11307B083BF81E001C080E012BE93B7987F93BFEE
S11307C093B7692B63BF0895CF93C82FCC0FCC0F79
S11307D061E080E00E94B30393B7916093BF20E08F
S11307E007C008B600FEFDCF98B7916098BF2F5F91
S11307F02C17B8F313BECF9108951F920F920FB622
S11308000F9211242F933F934F935F936F937F9392
S11308108F939F93AF93BF93EF93FF93E091670000
S1130820F0916800309709F00995FF91EF91BF911D
S1130830AF919F918F917F916F915F914F913F9174
S11308402F910F900FBE0F901F901895F894FFCF23
S10508500100A1
S9030000FC
