:100000000C942A000C946E000C9485000C9447000C
:100010000C9447000C9447000C9447000C94470044
:100020000C9447000C9447000C9447000C949C03DC
:100030000C9447000C9447000C9447000C94470024
:100040000C9447000C9447000C9447000C94470014
:100050000C94470011241FBECFE5D8E0DEBFCDBF12
:1000600010E0A0E6B0E0EEE8F7E002C005900D92E7
:10007000A236B107D9F720E0A2E6B0E001C01D9298
:10008000A536B207E1F70E94FD010C94C5030C945C
:10009000000064E081E40E94E80163E081E40E94E2
:1000A000E80162E081E40E94E80161E081E40E94ED
:1000B000E80161E083E40E94E10167E084E40E94DA
:1000C000E1010E943C0383E00E9442030E943E0340
:1000D00083E00E944C030E94480308951F920F92F0
:1000E0000FB60F9211248F9380916200883020F414
:1000F0008F5F8093620003C081E0809362008F91E4
:100100000F900FBE0F901F9018951F920F920FB671
:100110000F9211248F9380916000853020F48F5FBF
:100120008093600003C081E0809360008F910F9006
:100130000FBE0F901F9018958091620081508430FF
:1001400020F464E081E40E94EF018091620082501B
:10015000843020F463E081E40E94EF01809162002A
:100160008350843020F462E081E40E94EF018091AA
:1001700062008450843020F461E081E40E94EF0149
:1001800084E60E94830364E081E40E94F60163E058
:1001900081E40E94F60162E081E40E94F60161E0E0
:1001A00081E40E94F60184E80E948303089580910F
:1001B00062008150843020F464E081E40E94EF0109
:1001C000809162008250843020F463E081E40E94D8
:1001D000EF01809162008350843020F462E081E47A
:1001E0000E94EF01809162008450843020F461E02D
:1001F00081E40E94EF0188EC0E94830364E081E4C3
:100200000E94F60163E081E40E94F60162E081E46D
:100210000E94F60161E081E40E94F60180E20E9402
:1002200083030895809162008150843020F464E05B
:1002300081E40E94EF01809162008250843020F4BA
:1002400063E081E40E94EF0180916200835084307A
:1002500020F462E081E40E94EF018091620084500A
:10026000843020F461E081E40E94EF018CE20E947E
:10027000830364E081E40E94F60163E081E40E946C
:10028000F60162E081E40E94F60161E081E40E94EF
:10029000F6018CEB0E9483030895809162008150E7
:1002A000843020F464E081E40E94EF0180916200D8
:1002B0008250843020F463E081E40E94EF01809159
:1002C00062008350843020F462E081E40E94EF01F8
:1002D000809162008450843020F461E081E40E94C7
:1002E000EF0184EF0E94830364E081E40E94F60141
:1002F00063E081E40E94F60162E081E40E94F6017D
:1003000061E081E40E94F60184EF0E948303089576
:10031000809162008150843020F464E081E40E9486
:10032000EF01809162008250843020F463E081E428
:100330000E94EF01809162008350843020F462E0DB
:1003400081E40E94EF01809162008450843020F4A7
:1003500061E081E40E94EF0180E20E94830364E097
:1003600081E40E94F60163E081E40E94F60162E00C
:1003700081E40E94F60161E081E40E94F60188ECCC
:100380000E948303089580916000833089F028F4EF
:10039000813041F0823049F0F6CF843061F0853011
:1003A00069F0F1CF0E949C00EECF0E94D700EBCF06
:1003B0000E941201E8CF0E944D01E5CF0E94880102
:1003C000E2CF982F862F40E0692F0E940202089505
:1003D000982F862F41E0692F0E9402020895982FDE
:1003E000862F41E0692F0E949F020895982F862F43
:1003F00040E0692F0E949F0208950E9449000E94D8
:10040000C301FDCF623469F118F4613441F08DC04D
:10041000633409F448C0643409F466C086C04111ED
:100420000FC04AB321E030E0B90102C0660F771F68
:100430008A95E2F7CB01809584238ABB81E00895F9
:10044000413009F074C04AB321E030E0B90102C084
:10045000660F771F8A95E2F7CB01842B8ABB81E078
:10046000089541110FC047B321E030E0B90102C047
:10047000660F771F8A95E2F7CB018095842387BBAF
:1004800081E00895413009F054C047B321E030E0E5
:10049000B90102C0660F771F8A95E2F7CB01842B62
:1004A00087BB81E0089541110FC044B321E030E0E3
:1004B000B90102C0660F771F8A95E2F7CB018095DC
:1004C000842384BB81E008954130A9F544B321E041
:1004D00030E0B90102C0660F771F8A95E2F7CB01C1
:1004E000842B84BB81E0089541110FC041B321E00A
:1004F00030E0B90102C0660F771F8A95E2F7CB01A1
:100500008095842381BB81E008954130B1F441B3EB
:1005100021E030E0B90102C0660F771F8A95E2F74B
:10052000CB01842B81BB81E0089580E0089580E0B9
:10053000089580E0089580E0089580E00895623491
:1005400069F118F4613441F08DC0633409F448C096
:10055000643409F466C086C041110FC04BB321E07A
:1005600030E0B90102C0660F771F8A95E2F7CB0130
:10057000809584238BBB81E00895413009F074C0DD
:100580004BB321E030E0B90102C0660F771F8A95B6
:10059000E2F7CB01842B8BBB81E0089541110FC0A2
:1005A00048B321E030E0B90102C0660F771F8A9599
:1005B000E2F7CB018095842388BB81E00895413028
:1005C00009F054C048B321E030E0B90102C0660F21
:1005D000771F8A95E2F7CB01842B88BB81E00895D1
:1005E00041110FC045B321E030E0B90102C0660FF0
:1005F000771F8A95E2F7CB018095842385BB81E044
:1006000008954130A9F545B321E030E0B90102C0B9
:10061000660F771F8A95E2F7CB01842B85BB81E0BB
:10062000089541110FC042B321E030E0B90102C08A
:10063000660F771F8A95E2F7CB018095842382BBF2
:1006400081E008954130B1F442B321E030E0B901D6
:1006500002C0660F771F8A95E2F7CB01842B82BB1D
:1006600081E0089580E0089580E0089580E0089595
:1006700080E0089580E00895789408958BB78064B1
:100680008BBF0895833019F485B7836085BF0895C3
:100690008BB780688BBF0895833019F485B78C6061
:1006A00085BF0895813071F028F0823099F0833051
:1006B000C9F020C083B78F7B83BF83B7877F83BF99
:1006C00081E019C083B7806483BF83B7877F83BF0E
:1006D00081E011C083B78F7B83BF83B7886083BFFE
:1006E00081E009C083B7806483BF83B7886083BF1C
:1006F00081E001C080E012BE93B7987F93BF93B7AB
:10070000692B63BF0895CF93C82FCC0FCC0F61E046
:1007100080E00E94520393B7916093BF20E007C02E
:1007200008B600FEFDCF98B7916098BF2F5F2C17D9
:10073000B8F313BECF9108951F920F920FB60F9288
:1007400011242F933F934F935F936F937F938F93D6
:100750009F93AF93BF93EF93FF93E0916300F0916A
:100760006400309709F00995FF91EF91BF91AF9127
:100770009F918F917F916F915F914F913F912F91B9
:0E0780000F900FBE0F901F901895F894FFCFAA
:02078E00010068
:00000001FF
